{
  "_format": "hh-sol-artifact-1",
  "contractName": "RWA1155",
  "sourceName": "contracts/RWA1155.sol",
  "abi": [
    {
      "inputs": [],
      "stateMutability": "nonpayable",
      "type": "constructor"
    },
    {
      "anonymous": false,
      "inputs": [
        {
          "indexed": true,
          "internalType": "address",
          "name": "account",
          "type": "address"
        },
        {
          "indexed": true,
          "internalType": "address",
          "name": "operator",
          "type": "address"
        },
        {
          "indexed": false,
          "internalType": "bool",
          "name": "approved",
          "type": "bool"
        }
      ],
      "name": "ApprovalForAll",
      "type": "event"
    },
    {
      "anonymous": false,
      "inputs": [
        {
          "indexed": true,
          "internalType": "address",
          "name": "previousOwner",
          "type": "address"
        },
        {
          "indexed": true,
          "internalType": "address",
          "name": "newOwner",
          "type": "address"
        }
      ],
      "name": "OwnershipTransferred",
      "type": "event"
    },
    {
      "anonymous": false,
      "inputs": [
        {
          "indexed": true,
          "internalType": "address",
          "name": "operator",
          "type": "address"
        },
        {
          "indexed": true,
          "internalType": "address",
          "name": "from",
          "type": "address"
        },
        {
          "indexed": true,
          "internalType": "address",
          "name": "to",
          "type": "address"
        },
        {
          "indexed": false,
          "internalType": "uint256[]",
          "name": "ids",
          "type": "uint256[]"
        },
        {
          "indexed": false,
          "internalType": "uint256[]",
          "name": "values",
          "type": "uint256[]"
        }
      ],
      "name": "TransferBatch",
      "type": "event"
    },
    {
      "anonymous": false,
      "inputs": [
        {
          "indexed": true,
          "internalType": "address",
          "name": "operator",
          "type": "address"
        },
        {
          "indexed": true,
          "internalType": "address",
          "name": "from",
          "type": "address"
        },
        {
          "indexed": true,
          "internalType": "address",
          "name": "to",
          "type": "address"
        },
        {
          "indexed": false,
          "internalType": "uint256",
          "name": "id",
          "type": "uint256"
        },
        {
          "indexed": false,
          "internalType": "uint256",
          "name": "value",
          "type": "uint256"
        }
      ],
      "name": "TransferSingle",
      "type": "event"
    },
    {
      "anonymous": false,
      "inputs": [
        {
          "indexed": false,
          "internalType": "string",
          "name": "value",
          "type": "string"
        },
        {
          "indexed": true,
          "internalType": "uint256",
          "name": "id",
          "type": "uint256"
        }
      ],
      "name": "URI",
      "type": "event"
    },
    {
      "inputs": [
        {
          "internalType": "address",
          "name": "account",
          "type": "address"
        },
        {
          "internalType": "uint256",
          "name": "id",
          "type": "uint256"
        }
      ],
      "name": "balanceOf",
      "outputs": [
        {
          "internalType": "uint256",
          "name": "",
          "type": "uint256"
        }
      ],
      "stateMutability": "view",
      "type": "function"
    },
    {
      "inputs": [
        {
          "internalType": "address[]",
          "name": "accounts",
          "type": "address[]"
        },
        {
          "internalType": "uint256[]",
          "name": "ids",
          "type": "uint256[]"
        }
      ],
      "name": "balanceOfBatch",
      "outputs": [
        {
          "internalType": "uint256[]",
          "name": "",
          "type": "uint256[]"
        }
      ],
      "stateMutability": "view",
      "type": "function"
    },
    {
      "inputs": [
        {
          "internalType": "uint256",
          "name": "tokenId",
          "type": "uint256"
        }
      ],
      "name": "getRWA",
      "outputs": [
        {
          "components": [
            {
              "internalType": "string",
              "name": "rwaType",
              "type": "string"
            },
            {
              "internalType": "uint256",
              "name": "percent",
              "type": "uint256"
            },
            {
              "internalType": "string",
              "name": "metadataURI",
              "type": "string"
            }
          ],
          "internalType": "struct RWA1155.RWAData",
          "name": "",
          "type": "tuple"
        }
      ],
      "stateMutability": "view",
      "type": "function"
    },
    {
      "inputs": [
        {
          "internalType": "address",
          "name": "account",
          "type": "address"
        },
        {
          "internalType": "address",
          "name": "operator",
          "type": "address"
        }
      ],
      "name": "isApprovedForAll",
      "outputs": [
        {
          "internalType": "bool",
          "name": "",
          "type": "bool"
        }
      ],
      "stateMutability": "view",
      "type": "function"
    },
    {
      "inputs": [
        {
          "internalType": "address",
          "name": "to",
          "type": "address"
        },
        {
          "internalType": "uint256",
          "name": "amount",
          "type": "uint256"
        },
        {
          "internalType": "string",
          "name": "rwaType",
          "type": "string"
        },
        {
          "internalType": "uint256",
          "name": "percent",
          "type": "uint256"
        },
        {
          "internalType": "string",
          "name": "metadataURI",
          "type": "string"
        }
      ],
      "name": "mintRWA",
      "outputs": [
        {
          "internalType": "uint256",
          "name": "",
          "type": "uint256"
        }
      ],
      "stateMutability": "nonpayable",
      "type": "function"
    },
    {
      "inputs": [],
      "name": "owner",
      "outputs": [
        {
          "internalType": "address",
          "name": "",
          "type": "address"
        }
      ],
      "stateMutability": "view",
      "type": "function"
    },
    {
      "inputs": [],
      "name": "renounceOwnership",
      "outputs": [],
      "stateMutability": "nonpayable",
      "type": "function"
    },
    {
      "inputs": [
        {
          "internalType": "uint256",
          "name": "",
          "type": "uint256"
        }
      ],
      "name": "rwaMetadata",
      "outputs": [
        {
          "internalType": "string",
          "name": "rwaType",
          "type": "string"
        },
        {
          "internalType": "uint256",
          "name": "percent",
          "type": "uint256"
        },
        {
          "internalType": "string",
          "name": "metadataURI",
          "type": "string"
        }
      ],
      "stateMutability": "view",
      "type": "function"
    },
    {
      "inputs": [
        {
          "internalType": "address",
          "name": "from",
          "type": "address"
        },
        {
          "internalType": "address",
          "name": "to",
          "type": "address"
        },
        {
          "internalType": "uint256[]",
          "name": "ids",
          "type": "uint256[]"
        },
        {
          "internalType": "uint256[]",
          "name": "amounts",
          "type": "uint256[]"
        },
        {
          "internalType": "bytes",
          "name": "data",
          "type": "bytes"
        }
      ],
      "name": "safeBatchTransferFrom",
      "outputs": [],
      "stateMutability": "nonpayable",
      "type": "function"
    },
    {
      "inputs": [
        {
          "internalType": "address",
          "name": "from",
          "type": "address"
        },
        {
          "internalType": "address",
          "name": "to",
          "type": "address"
        },
        {
          "internalType": "uint256",
          "name": "id",
          "type": "uint256"
        },
        {
          "internalType": "uint256",
          "name": "amount",
          "type": "uint256"
        },
        {
          "internalType": "bytes",
          "name": "data",
          "type": "bytes"
        }
      ],
      "name": "safeTransferFrom",
      "outputs": [],
      "stateMutability": "nonpayable",
      "type": "function"
    },
    {
      "inputs": [
        {
          "internalType": "address",
          "name": "operator",
          "type": "address"
        },
        {
          "internalType": "bool",
          "name": "approved",
          "type": "bool"
        }
      ],
      "name": "setApprovalForAll",
      "outputs": [],
      "stateMutability": "nonpayable",
      "type": "function"
    },
    {
      "inputs": [
        {
          "internalType": "bytes4",
          "name": "interfaceId",
          "type": "bytes4"
        }
      ],
      "name": "supportsInterface",
      "outputs": [
        {
          "internalType": "bool",
          "name": "",
          "type": "bool"
        }
      ],
      "stateMutability": "view",
      "type": "function"
    },
    {
      "inputs": [
        {
          "internalType": "address",
          "name": "newOwner",
          "type": "address"
        }
      ],
      "name": "transferOwnership",
      "outputs": [],
      "stateMutability": "nonpayable",
      "type": "function"
    },
    {
      "inputs": [
        {
          "internalType": "uint256",
          "name": "tokenId",
          "type": "uint256"
        }
      ],
      "name": "uri",
      "outputs": [
        {
          "internalType": "string",
          "name": "",
          "type": "string"
        }
      ],
      "stateMutability": "view",
      "type": "function"
    }
  ],
  "bytecode": "0x60806040523480156200001157600080fd5b506040518060200160405280600081525062000033816200005a60201b60201c565b5062000054620000486200006f60201b60201c565b6200007760201b60201c565b6200049e565b80600290816200006b9190620003b7565b5050565b600033905090565b6000600360009054906101000a900473ffffffffffffffffffffffffffffffffffffffff16905081600360006101000a81548173ffffffffffffffffffffffffffffffffffffffff021916908373ffffffffffffffffffffffffffffffffffffffff1602179055508173ffffffffffffffffffffffffffffffffffffffff168173ffffffffffffffffffffffffffffffffffffffff167f8be0079c531659141344cd1fd0a4f28419497f9722a3daafe3b4186f6b6457e060405160405180910390a35050565b600081519050919050565b7f4e487b7100000000000000000000000000000000000000000000000000000000600052604160045260246000fd5b7f4e487b7100000000000000000000000000000000000000000000000000000000600052602260045260246000fd5b60006002820490506001821680620001bf57607f821691505b602082108103620001d557620001d462000177565b5b50919050565b60008190508160005260206000209050919050565b60006020601f8301049050919050565b600082821b905092915050565b6000600883026200023f7fffffffffffffffffffffffffffffffffffffffffffffffffffffffffffffffff8262000200565b6200024b868362000200565b95508019841693508086168417925050509392505050565b6000819050919050565b6000819050919050565b600062000298620002926200028c8462000263565b6200026d565b62000263565b9050919050565b6000819050919050565b620002b48362000277565b620002cc620002c3826200029f565b8484546200020d565b825550505050565b600090565b620002e3620002d4565b620002f0818484620002a9565b505050565b5b8181101562000318576200030c600082620002d9565b600181019050620002f6565b5050565b601f82111562000367576200033181620001db565b6200033c84620001f0565b810160208510156200034c578190505b620003646200035b85620001f0565b830182620002f5565b50505b505050565b600082821c905092915050565b60006200038c600019846008026200036c565b1980831691505092915050565b6000620003a7838362000379565b9150826002028217905092915050565b620003c2826200013d565b67ffffffffffffffff811115620003de57620003dd62000148565b5b620003ea8254620001a6565b620003f78282856200031c565b600060209050601f8311600181146200042f57600084156200041a578287015190505b62000426858262000399565b86555062000496565b601f1984166200043f86620001db565b60005b82811015620004695784890151825560018201915060208501945060208101905062000442565b8683101562000489578489015162000485601f89168262000379565b8355505b6001600288020188555050505b505050505050565b61361b80620004ae6000396000f3fe608060405234801561001057600080fd5b50600436106100e95760003560e01c80638da5cb5b1161008c578063ddca659b11610066578063ddca659b14610270578063e985e9c5146102a0578063f242432a146102d0578063f2fde38b146102ec576100e9565b80638da5cb5b14610206578063a22cb46514610224578063c60fd49b14610240576100e9565b80632eb2c2d6116100c85780632eb2c2d61461017e5780634e1273f41461019a5780636f312e64146101ca578063715018a6146101fc576100e9565b8062fdd58e146100ee57806301ffc9a71461011e5780630e89341c1461014e575b600080fd5b61010860048036038101906101039190611cfe565b610308565b6040516101159190611d4d565b60405180910390f35b61013860048036038101906101339190611dc0565b6103d0565b6040516101459190611e08565b60405180910390f35b61016860048036038101906101639190611e23565b6104b2565b6040516101759190611ee0565b60405180910390f35b610198600480360381019061019391906120ff565b6105bb565b005b6101b460048036038101906101af9190612291565b61065c565b6040516101c191906123c7565b60405180910390f35b6101e460048036038101906101df9190611e23565b610775565b6040516101f3939291906123e9565b60405180910390f35b6102046108af565b005b61020e6108c3565b60405161021b919061243d565b60405180910390f35b61023e60048036038101906102399190612484565b6108ed565b005b61025a60048036038101906102559190612565565b610903565b6040516102679190611d4d565b60405180910390f35b61028a60048036038101906102859190611e23565b6109b4565b60405161029791906126b9565b60405180910390f35b6102ba60048036038101906102b591906126db565b610b70565b6040516102c79190611e08565b60405180910390f35b6102ea60048036038101906102e5919061271b565b610c04565b005b610306600480360381019061030191906127b2565b610ca5565b005b60008073ffffffffffffffffffffffffffffffffffffffff168373ffffffffffffffffffffffffffffffffffffffff1603610378576040517f08c379a000000000000000000000000000000000000000000000000000000000815260040161036f90612851565b60405180910390fd5b60008083815260200190815260200160002060008473ffffffffffffffffffffffffffffffffffffffff1673ffffffffffffffffffffffffffffffffffffffff16815260200190815260200160002054905092915050565b60007fd9b67a26000000000000000000000000000000000000000000000000000000007bffffffffffffffffffffffffffffffffffffffffffffffffffffffff1916827bffffffffffffffffffffffffffffffffffffffffffffffffffffffff1916148061049b57507f0e89341c000000000000000000000000000000000000000000000000000000007bffffffffffffffffffffffffffffffffffffffffffffffffffffffff1916827bffffffffffffffffffffffffffffffffffffffffffffffffffffffff1916145b806104ab57506104aa82610d28565b5b9050919050565b606060006104c06004610d92565b1180156104d657506104d26004610d92565b8211155b610515576040517f08c379a000000000000000000000000000000000000000000000000000000000815260040161050c906128e3565b60405180910390fd5b60056000838152602001908152602001600020600201805461053690612932565b80601f016020809104026020016040519081016040528092919081815260200182805461056290612932565b80156105af5780601f10610584576101008083540402835291602001916105af565b820191906000526020600020905b81548152906001019060200180831161059257829003601f168201915b50505050509050919050565b6105c3610da0565b73ffffffffffffffffffffffffffffffffffffffff168573ffffffffffffffffffffffffffffffffffffffff161480610609575061060885610603610da0565b610b70565b5b610648576040517f08c379a000000000000000000000000000000000000000000000000000000000815260040161063f906129d5565b60405180910390fd5b6106558585858585610da8565b5050505050565b606081518351146106a2576040517f08c379a000000000000000000000000000000000000000000000000000000000815260040161069990612a67565b60405180910390fd5b6000835167ffffffffffffffff8111156106bf576106be611f07565b5b6040519080825280602002602001820160405280156106ed5781602001602082028036833780820191505090505b50905060005b845181101561076a5761073a85828151811061071257610711612a87565b5b602002602001015185838151811061072d5761072c612a87565b5b6020026020010151610308565b82828151811061074d5761074c612a87565b5b6020026020010181815250508061076390612ae5565b90506106f3565b508091505092915050565b600560205280600052604060002060009150905080600001805461079890612932565b80601f01602080910402602001604051908101604052809291908181526020018280546107c490612932565b80156108115780601f106107e657610100808354040283529160200191610811565b820191906000526020600020905b8154815290600101906020018083116107f457829003601f168201915b50505050509080600101549080600201805461082c90612932565b80601f016020809104026020016040519081016040528092919081815260200182805461085890612932565b80156108a55780601f1061087a576101008083540402835291602001916108a5565b820191906000526020600020905b81548152906001019060200180831161088857829003601f168201915b5050505050905083565b6108b76110c9565b6108c16000611147565b565b6000600360009054906101000a900473ffffffffffffffffffffffffffffffffffffffff16905090565b6108ff6108f8610da0565b838361120d565b5050565b600061090d6110c9565b6109176004611379565b60006109236004610d92565b90506040518060600160405280868152602001858152602001848152506005600083815260200190815260200160002060008201518160000190816109689190612cd9565b506020820151816001015560408201518160020190816109889190612cd9565b509050506109a78782886040518060200160405280600081525061138f565b8091505095945050505050565b6109bc611c35565b60006109c86004610d92565b1180156109de57506109da6004610d92565b8211155b610a1d576040517f08c379a0000000000000000000000000000000000000000000000000000000008152600401610a1490612e1d565b60405180910390fd5b60056000838152602001908152602001600020604051806060016040529081600082018054610a4b90612932565b80601f0160208091040260200160405190810160405280929190818152602001828054610a7790612932565b8015610ac45780601f10610a9957610100808354040283529160200191610ac4565b820191906000526020600020905b815481529060010190602001808311610aa757829003601f168201915b5050505050815260200160018201548152602001600282018054610ae790612932565b80601f0160208091040260200160405190810160405280929190818152602001828054610b1390612932565b8015610b605780601f10610b3557610100808354040283529160200191610b60565b820191906000526020600020905b815481529060010190602001808311610b4357829003601f168201915b5050505050815250509050919050565b6000600160008473ffffffffffffffffffffffffffffffffffffffff1673ffffffffffffffffffffffffffffffffffffffff16815260200190815260200160002060008373ffffffffffffffffffffffffffffffffffffffff1673ffffffffffffffffffffffffffffffffffffffff16815260200190815260200160002060009054906101000a900460ff16905092915050565b610c0c610da0565b73ffffffffffffffffffffffffffffffffffffffff168573ffffffffffffffffffffffffffffffffffffffff161480610c525750610c5185610c4c610da0565b610b70565b5b610c91576040517f08c379a0000000000000000000000000000000000000000000000000000000008152600401610c88906129d5565b60405180910390fd5b610c9e858585858561153f565b5050505050565b610cad6110c9565b600073ffffffffffffffffffffffffffffffffffffffff168173ffffffffffffffffffffffffffffffffffffffff1603610d1c576040517f08c379a0000000000000000000000000000000000000000000000000000000008152600401610d1390612eaf565b60405180910390fd5b610d2581611147565b50565b60007f01ffc9a7000000000000000000000000000000000000000000000000000000007bffffffffffffffffffffffffffffffffffffffffffffffffffffffff1916827bffffffffffffffffffffffffffffffffffffffffffffffffffffffff1916149050919050565b600081600001549050919050565b600033905090565b8151835114610dec576040517f08c379a0000000000000000000000000000000000000000000000000000000008152600401610de390612f41565b60405180910390fd5b600073ffffffffffffffffffffffffffffffffffffffff168473ffffffffffffffffffffffffffffffffffffffff1603610e5b576040517f08c379a0000000000000000000000000000000000000000000000000000000008152600401610e5290612fd3565b60405180910390fd5b6000610e65610da0565b9050610e758187878787876117da565b60005b8451811015611026576000858281518110610e9657610e95612a87565b5b602002602001015190506000858381518110610eb557610eb4612a87565b5b60200260200101519050600080600084815260200190815260200160002060008b73ffffffffffffffffffffffffffffffffffffffff1673ffffffffffffffffffffffffffffffffffffffff16815260200190815260200160002054905081811015610f56576040517f08c379a0000000000000000000000000000000000000000000000000000000008152600401610f4d90613065565b60405180910390fd5b81810360008085815260200190815260200160002060008c73ffffffffffffffffffffffffffffffffffffffff1673ffffffffffffffffffffffffffffffffffffffff168152602001908152602001600020819055508160008085815260200190815260200160002060008b73ffffffffffffffffffffffffffffffffffffffff1673ffffffffffffffffffffffffffffffffffffffff168152602001908152602001600020600082825461100b9190613085565b925050819055505050508061101f90612ae5565b9050610e78565b508473ffffffffffffffffffffffffffffffffffffffff168673ffffffffffffffffffffffffffffffffffffffff168273ffffffffffffffffffffffffffffffffffffffff167f4a39dc06d4c0dbc64b70af90fd698a233a518aa5d07e595d983b8c0526c8f7fb878760405161109d9291906130b9565b60405180910390a46110b38187878787876117e2565b6110c18187878787876117ea565b505050505050565b6110d1610da0565b73ffffffffffffffffffffffffffffffffffffffff166110ef6108c3565b73ffffffffffffffffffffffffffffffffffffffff1614611145576040517f08c379a000000000000000000000000000000000000000000000000000000000815260040161113c9061313c565b60405180910390fd5b565b6000600360009054906101000a900473ffffffffffffffffffffffffffffffffffffffff16905081600360006101000a81548173ffffffffffffffffffffffffffffffffffffffff021916908373ffffffffffffffffffffffffffffffffffffffff1602179055508173ffffffffffffffffffffffffffffffffffffffff168173ffffffffffffffffffffffffffffffffffffffff167f8be0079c531659141344cd1fd0a4f28419497f9722a3daafe3b4186f6b6457e060405160405180910390a35050565b8173ffffffffffffffffffffffffffffffffffffffff168373ffffffffffffffffffffffffffffffffffffffff160361127b576040517f08c379a0000000000000000000000000000000000000000000000000000000008152600401611272906131ce565b60405180910390fd5b80600160008573ffffffffffffffffffffffffffffffffffffffff1673ffffffffffffffffffffffffffffffffffffffff16815260200190815260200160002060008473ffffffffffffffffffffffffffffffffffffffff1673ffffffffffffffffffffffffffffffffffffffff16815260200190815260200160002060006101000a81548160ff0219169083151502179055508173ffffffffffffffffffffffffffffffffffffffff168373ffffffffffffffffffffffffffffffffffffffff167f17307eab39ab6107e8899845ad3d59bd9653f200f220920489ca2b5937696c318360405161136c9190611e08565b60405180910390a3505050565b6001816000016000828254019250508190555050565b600073ffffffffffffffffffffffffffffffffffffffff168473ffffffffffffffffffffffffffffffffffffffff16036113fe576040517f08c379a00000000000000000000000000000000000000000000000000000000081526004016113f590613260565b60405180910390fd5b6000611408610da0565b90506000611415856119c1565b90506000611422856119c1565b9050611433836000898585896117da565b8460008088815260200190815260200160002060008973ffffffffffffffffffffffffffffffffffffffff1673ffffffffffffffffffffffffffffffffffffffff16815260200190815260200160002060008282546114929190613085565b925050819055508673ffffffffffffffffffffffffffffffffffffffff16600073ffffffffffffffffffffffffffffffffffffffff168473ffffffffffffffffffffffffffffffffffffffff167fc3d58168c5ae7397731d063d5bbf3d657854427343f4c083240f7aacaa2d0f628989604051611510929190613280565b60405180910390a4611527836000898585896117e2565b61153683600089898989611a3b565b50505050505050565b600073ffffffffffffffffffffffffffffffffffffffff168473ffffffffffffffffffffffffffffffffffffffff16036115ae576040517f08c379a00000000000000000000000000000000000000000000000000000000081526004016115a590612fd3565b60405180910390fd5b60006115b8610da0565b905060006115c5856119c1565b905060006115d2856119c1565b90506115e28389898585896117da565b600080600088815260200190815260200160002060008a73ffffffffffffffffffffffffffffffffffffffff1673ffffffffffffffffffffffffffffffffffffffff16815260200190815260200160002054905085811015611679576040517f08c379a000000000000000000000000000000000000000000000000000000000815260040161167090613065565b60405180910390fd5b85810360008089815260200190815260200160002060008b73ffffffffffffffffffffffffffffffffffffffff1673ffffffffffffffffffffffffffffffffffffffff168152602001908152602001600020819055508560008089815260200190815260200160002060008a73ffffffffffffffffffffffffffffffffffffffff1673ffffffffffffffffffffffffffffffffffffffff168152602001908152602001600020600082825461172e9190613085565b925050819055508773ffffffffffffffffffffffffffffffffffffffff168973ffffffffffffffffffffffffffffffffffffffff168573ffffffffffffffffffffffffffffffffffffffff167fc3d58168c5ae7397731d063d5bbf3d657854427343f4c083240f7aacaa2d0f628a8a6040516117ab929190613280565b60405180910390a46117c1848a8a86868a6117e2565b6117cf848a8a8a8a8a611a3b565b505050505050505050565b505050505050565b505050505050565b6118098473ffffffffffffffffffffffffffffffffffffffff16611c12565b156119b9578373ffffffffffffffffffffffffffffffffffffffff1663bc197c8187878686866040518663ffffffff1660e01b815260040161184f9594939291906132fe565b6020604051808303816000875af192505050801561188b57506040513d601f19601f82011682018060405250810190611888919061337b565b60015b611930576118976133b5565b806308c379a0036118f357506118ab6133d7565b806118b657506118f5565b806040517f08c379a00000000000000000000000000000000000000000000000000000000081526004016118ea9190611ee0565b60405180910390fd5b505b6040517f08c379a0000000000000000000000000000000000000000000000000000000008152600401611927906134d9565b60405180910390fd5b63bc197c8160e01b7bffffffffffffffffffffffffffffffffffffffffffffffffffffffff1916817bffffffffffffffffffffffffffffffffffffffffffffffffffffffff1916146119b7576040517f08c379a00000000000000000000000000000000000000000000000000000000081526004016119ae9061356b565b60405180910390fd5b505b505050505050565b60606000600167ffffffffffffffff8111156119e0576119df611f07565b5b604051908082528060200260200182016040528015611a0e5781602001602082028036833780820191505090505b5090508281600081518110611a2657611a25612a87565b5b60200260200101818152505080915050919050565b611a5a8473ffffffffffffffffffffffffffffffffffffffff16611c12565b15611c0a578373ffffffffffffffffffffffffffffffffffffffff1663f23a6e6187878686866040518663ffffffff1660e01b8152600401611aa095949392919061358b565b6020604051808303816000875af1925050508015611adc57506040513d601f19601f82011682018060405250810190611ad9919061337b565b60015b611b8157611ae86133b5565b806308c379a003611b445750611afc6133d7565b80611b075750611b46565b806040517f08c379a0000000000000000000000000000000000000000000000000000000008152600401611b3b9190611ee0565b60405180910390fd5b505b6040517f08c379a0000000000000000000000000000000000000000000000000000000008152600401611b78906134d9565b60405180910390fd5b63f23a6e6160e01b7bffffffffffffffffffffffffffffffffffffffffffffffffffffffff1916817bffffffffffffffffffffffffffffffffffffffffffffffffffffffff191614611c08576040517f08c379a0000000000000000000000000000000000000000000000000000000008152600401611bff9061356b565b60405180910390fd5b505b505050505050565b6000808273ffffffffffffffffffffffffffffffffffffffff163b119050919050565b60405180606001604052806060815260200160008152602001606081525090565b6000604051905090565b600080fd5b600080fd5b600073ffffffffffffffffffffffffffffffffffffffff82169050919050565b6000611c9582611c6a565b9050919050565b611ca581611c8a565b8114611cb057600080fd5b50565b600081359050611cc281611c9c565b92915050565b6000819050919050565b611cdb81611cc8565b8114611ce657600080fd5b50565b600081359050611cf881611cd2565b92915050565b60008060408385031215611d1557611d14611c60565b5b6000611d2385828601611cb3565b9250506020611d3485828601611ce9565b9150509250929050565b611d4781611cc8565b82525050565b6000602082019050611d626000830184611d3e565b92915050565b60007fffffffff0000000000000000000000000000000000000000000000000000000082169050919050565b611d9d81611d68565b8114611da857600080fd5b50565b600081359050611dba81611d94565b92915050565b600060208284031215611dd657611dd5611c60565b5b6000611de484828501611dab565b91505092915050565b60008115159050919050565b611e0281611ded565b82525050565b6000602082019050611e1d6000830184611df9565b92915050565b600060208284031215611e3957611e38611c60565b5b6000611e4784828501611ce9565b91505092915050565b600081519050919050565b600082825260208201905092915050565b60005b83811015611e8a578082015181840152602081019050611e6f565b60008484015250505050565b6000601f19601f8301169050919050565b6000611eb282611e50565b611ebc8185611e5b565b9350611ecc818560208601611e6c565b611ed581611e96565b840191505092915050565b60006020820190508181036000830152611efa8184611ea7565b905092915050565b600080fd5b7f4e487b7100000000000000000000000000000000000000000000000000000000600052604160045260246000fd5b611f3f82611e96565b810181811067ffffffffffffffff82111715611f5e57611f5d611f07565b5b80604052505050565b6000611f71611c56565b9050611f7d8282611f36565b919050565b600067ffffffffffffffff821115611f9d57611f9c611f07565b5b602082029050602081019050919050565b600080fd5b6000611fc6611fc184611f82565b611f67565b90508083825260208201905060208402830185811115611fe957611fe8611fae565b5b835b818110156120125780611ffe8882611ce9565b845260208401935050602081019050611feb565b5050509392505050565b600082601f83011261203157612030611f02565b5b8135612041848260208601611fb3565b91505092915050565b600080fd5b600067ffffffffffffffff82111561206a57612069611f07565b5b61207382611e96565b9050602081019050919050565b82818337600083830152505050565b60006120a261209d8461204f565b611f67565b9050828152602081018484840111156120be576120bd61204a565b5b6120c9848285612080565b509392505050565b600082601f8301126120e6576120e5611f02565b5b81356120f684826020860161208f565b91505092915050565b600080600080600060a0868803121561211b5761211a611c60565b5b600061212988828901611cb3565b955050602061213a88828901611cb3565b945050604086013567ffffffffffffffff81111561215b5761215a611c65565b5b6121678882890161201c565b935050606086013567ffffffffffffffff81111561218857612187611c65565b5b6121948882890161201c565b925050608086013567ffffffffffffffff8111156121b5576121b4611c65565b5b6121c1888289016120d1565b9150509295509295909350565b600067ffffffffffffffff8211156121e9576121e8611f07565b5b602082029050602081019050919050565b600061220d612208846121ce565b611f67565b905080838252602082019050602084028301858111156122305761222f611fae565b5b835b8181101561225957806122458882611cb3565b845260208401935050602081019050612232565b5050509392505050565b600082601f83011261227857612277611f02565b5b81356122888482602086016121fa565b91505092915050565b600080604083850312156122a8576122a7611c60565b5b600083013567ffffffffffffffff8111156122c6576122c5611c65565b5b6122d285828601612263565b925050602083013567ffffffffffffffff8111156122f3576122f2611c65565b5b6122ff8582860161201c565b9150509250929050565b600081519050919050565b600082825260208201905092915050565b6000819050602082019050919050565b61233e81611cc8565b82525050565b60006123508383612335565b60208301905092915050565b6000602082019050919050565b600061237482612309565b61237e8185612314565b935061238983612325565b8060005b838110156123ba5781516123a18882612344565b97506123ac8361235c565b92505060018101905061238d565b5085935050505092915050565b600060208201905081810360008301526123e18184612369565b905092915050565b600060608201905081810360008301526124038186611ea7565b90506124126020830185611d3e565b81810360408301526124248184611ea7565b9050949350505050565b61243781611c8a565b82525050565b6000602082019050612452600083018461242e565b92915050565b61246181611ded565b811461246c57600080fd5b50565b60008135905061247e81612458565b92915050565b6000806040838503121561249b5761249a611c60565b5b60006124a985828601611cb3565b92505060206124ba8582860161246f565b9150509250929050565b600067ffffffffffffffff8211156124df576124de611f07565b5b6124e882611e96565b9050602081019050919050565b6000612508612503846124c4565b611f67565b9050828152602081018484840111156125245761252361204a565b5b61252f848285612080565b509392505050565b600082601f83011261254c5761254b611f02565b5b813561255c8482602086016124f5565b91505092915050565b600080600080600060a0868803121561258157612580611c60565b5b600061258f88828901611cb3565b95505060206125a088828901611ce9565b945050604086013567ffffffffffffffff8111156125c1576125c0611c65565b5b6125cd88828901612537565b93505060606125de88828901611ce9565b925050608086013567ffffffffffffffff8111156125ff576125fe611c65565b5b61260b88828901612537565b9150509295509295909350565b600082825260208201905092915050565b600061263482611e50565b61263e8185612618565b935061264e818560208601611e6c565b61265781611e96565b840191505092915050565b6000606083016000830151848203600086015261267f8282612629565b91505060208301516126946020860182612335565b50604083015184820360408601526126ac8282612629565b9150508091505092915050565b600060208201905081810360008301526126d38184612662565b905092915050565b600080604083850312156126f2576126f1611c60565b5b600061270085828601611cb3565b925050602061271185828601611cb3565b9150509250929050565b600080600080600060a0868803121561273757612736611c60565b5b600061274588828901611cb3565b955050602061275688828901611cb3565b945050604061276788828901611ce9565b935050606061277888828901611ce9565b925050608086013567ffffffffffffffff81111561279957612798611c65565b5b6127a5888289016120d1565b9150509295509295909350565b6000602082840312156127c8576127c7611c60565b5b60006127d684828501611cb3565b91505092915050565b7f455243313135353a2061646472657373207a65726f206973206e6f742061207660008201527f616c6964206f776e657200000000000000000000000000000000000000000000602082015250565b600061283b602a83611e5b565b9150612846826127df565b604082019050919050565b6000602082019050818103600083015261286a8161282e565b9050919050565b7f525741313135353a2055524920717565727920666f72206e6f6e65786973746560008201527f6e7420746f6b656e000000000000000000000000000000000000000000000000602082015250565b60006128cd602883611e5b565b91506128d882612871565b604082019050919050565b600060208201905081810360008301526128fc816128c0565b9050919050565b7f4e487b7100000000000000000000000000000000000000000000000000000000600052602260045260246000fd5b6000600282049050600182168061294a57607f821691505b60208210810361295d5761295c612903565b5b50919050565b7f455243313135353a2063616c6c6572206973206e6f7420746f6b656e206f776e60008201527f6572206f7220617070726f766564000000000000000000000000000000000000602082015250565b60006129bf602e83611e5b565b91506129ca82612963565b604082019050919050565b600060208201905081810360008301526129ee816129b2565b9050919050565b7f455243313135353a206163636f756e747320616e6420696473206c656e67746860008201527f206d69736d617463680000000000000000000000000000000000000000000000602082015250565b6000612a51602983611e5b565b9150612a5c826129f5565b604082019050919050565b60006020820190508181036000830152612a8081612a44565b9050919050565b7f4e487b7100000000000000000000000000000000000000000000000000000000600052603260045260246000fd5b7f4e487b7100000000000000000000000000000000000000000000000000000000600052601160045260246000fd5b6000612af082611cc8565b91507fffffffffffffffffffffffffffffffffffffffffffffffffffffffffffffffff8203612b2257612b21612ab6565b5b600182019050919050565b60008190508160005260206000209050919050565b60006020601f8301049050919050565b600082821b905092915050565b600060088302612b8f7fffffffffffffffffffffffffffffffffffffffffffffffffffffffffffffffff82612b52565b612b998683612b52565b95508019841693508086168417925050509392505050565b6000819050919050565b6000612bd6612bd1612bcc84611cc8565b612bb1565b611cc8565b9050919050565b6000819050919050565b612bf083612bbb565b612c04612bfc82612bdd565b848454612b5f565b825550505050565b600090565b612c19612c0c565b612c24818484612be7565b505050565b5b81811015612c4857612c3d600082612c11565b600181019050612c2a565b5050565b601f821115612c8d57612c5e81612b2d565b612c6784612b42565b81016020851015612c76578190505b612c8a612c8285612b42565b830182612c29565b50505b505050565b600082821c905092915050565b6000612cb060001984600802612c92565b1980831691505092915050565b6000612cc98383612c9f565b9150826002028217905092915050565b612ce282611e50565b67ffffffffffffffff811115612cfb57612cfa611f07565b5b612d058254612932565b612d10828285612c4c565b600060209050601f831160018114612d435760008415612d31578287015190505b612d3b8582612cbd565b865550612da3565b601f198416612d5186612b2d565b60005b82811015612d7957848901518255600182019150602085019450602081019050612d54565b86831015612d965784890151612d92601f891682612c9f565b8355505b6001600288020188555050505b505050505050565b7f525741313135353a2052574120717565727920666f72206e6f6e65786973746560008201527f6e7420746f6b656e000000000000000000000000000000000000000000000000602082015250565b6000612e07602883611e5b565b9150612e1282612dab565b604082019050919050565b60006020820190508181036000830152612e3681612dfa565b9050919050565b7f4f776e61626c653a206e6577206f776e657220697320746865207a65726f206160008201527f6464726573730000000000000000000000000000000000000000000000000000602082015250565b6000612e99602683611e5b565b9150612ea482612e3d565b604082019050919050565b60006020820190508181036000830152612ec881612e8c565b9050919050565b7f455243313135353a2069647320616e6420616d6f756e7473206c656e6774682060008201527f6d69736d61746368000000000000000000000000000000000000000000000000602082015250565b6000612f2b602883611e5b565b9150612f3682612ecf565b604082019050919050565b60006020820190508181036000830152612f5a81612f1e565b9050919050565b7f455243313135353a207472616e7366657220746f20746865207a65726f20616460008201527f6472657373000000000000000000000000000000000000000000000000000000602082015250565b6000612fbd602583611e5b565b9150612fc882612f61565b604082019050919050565b60006020820190508181036000830152612fec81612fb0565b9050919050565b7f455243313135353a20696e73756666696369656e742062616c616e636520666f60008201527f72207472616e7366657200000000000000000000000000000000000000000000602082015250565b600061304f602a83611e5b565b915061305a82612ff3565b604082019050919050565b6000602082019050818103600083015261307e81613042565b9050919050565b600061309082611cc8565b915061309b83611cc8565b92508282019050808211156130b3576130b2612ab6565b5b92915050565b600060408201905081810360008301526130d38185612369565b905081810360208301526130e78184612369565b90509392505050565b7f4f776e61626c653a2063616c6c6572206973206e6f7420746865206f776e6572600082015250565b6000613126602083611e5b565b9150613131826130f0565b602082019050919050565b6000602082019050818103600083015261315581613119565b9050919050565b7f455243313135353a2073657474696e6720617070726f76616c2073746174757360008201527f20666f722073656c660000000000000000000000000000000000000000000000602082015250565b60006131b8602983611e5b565b91506131c38261315c565b604082019050919050565b600060208201905081810360008301526131e7816131ab565b9050919050565b7f455243313135353a206d696e7420746f20746865207a65726f2061646472657360008201527f7300000000000000000000000000000000000000000000000000000000000000602082015250565b600061324a602183611e5b565b9150613255826131ee565b604082019050919050565b600060208201905081810360008301526132798161323d565b9050919050565b60006040820190506132956000830185611d3e565b6132a26020830184611d3e565b9392505050565b600081519050919050565b600082825260208201905092915050565b60006132d0826132a9565b6132da81856132b4565b93506132ea818560208601611e6c565b6132f381611e96565b840191505092915050565b600060a082019050613313600083018861242e565b613320602083018761242e565b81810360408301526133328186612369565b905081810360608301526133468185612369565b9050818103608083015261335a81846132c5565b90509695505050505050565b60008151905061337581611d94565b92915050565b60006020828403121561339157613390611c60565b5b600061339f84828501613366565b91505092915050565b60008160e01c9050919050565b600060033d11156133d45760046000803e6133d16000516133a8565b90505b90565b600060443d10613464576133e9611c56565b60043d036004823e80513d602482011167ffffffffffffffff82111715613411575050613464565b808201805167ffffffffffffffff81111561342f5750505050613464565b80602083010160043d03850181111561344c575050505050613464565b61345b82602001850186611f36565b82955050505050505b90565b7f455243313135353a207472616e7366657220746f206e6f6e2d4552433131353560008201527f526563656976657220696d706c656d656e746572000000000000000000000000602082015250565b60006134c3603483611e5b565b91506134ce82613467565b604082019050919050565b600060208201905081810360008301526134f2816134b6565b9050919050565b7f455243313135353a204552433131353552656365697665722072656a6563746560008201527f6420746f6b656e73000000000000000000000000000000000000000000000000602082015250565b6000613555602883611e5b565b9150613560826134f9565b604082019050919050565b6000602082019050818103600083015261358481613548565b9050919050565b600060a0820190506135a0600083018861242e565b6135ad602083018761242e565b6135ba6040830186611d3e565b6135c76060830185611d3e565b81810360808301526135d981846132c5565b9050969550505050505056fea2646970667358221220cb3fb50a5f9a71b22c66178b80e8eb56e6719f4a5afd55970d62f648368a7d4264736f6c63430008110033",
  "linkReferences": {},
  "deployedLinkReferences": {}
}