{
  "_format": "hh-sol-artifact-1",
  "contractName": "RWA1155",
  "sourceName": "contracts/RWA1155.sol",
  "abi": [
    {
      "inputs": [],
      "stateMutability": "nonpayable",
      "type": "constructor"
    },
    {
      "anonymous": false,
      "inputs": [
        {
          "indexed": true,
          "internalType": "address",
          "name": "account",
          "type": "address"
        },
        {
          "indexed": true,
          "internalType": "address",
          "name": "operator",
          "type": "address"
        },
        {
          "indexed": false,
          "internalType": "bool",
          "name": "approved",
          "type": "bool"
        }
      ],
      "name": "ApprovalForAll",
      "type": "event"
    },
    {
      "anonymous": false,
      "inputs": [
        {
          "indexed": true,
          "internalType": "address",
          "name": "previousOwner",
          "type": "address"
        },
        {
          "indexed": true,
          "internalType": "address",
          "name": "newOwner",
          "type": "address"
        }
      ],
      "name": "OwnershipTransferred",
      "type": "event"
    },
    {
      "anonymous": false,
      "inputs": [
        {
          "indexed": true,
          "internalType": "address",
          "name": "operator",
          "type": "address"
        },
        {
          "indexed": true,
          "internalType": "address",
          "name": "from",
          "type": "address"
        },
        {
          "indexed": true,
          "internalType": "address",
          "name": "to",
          "type": "address"
        },
        {
          "indexed": false,
          "internalType": "uint256[]",
          "name": "ids",
          "type": "uint256[]"
        },
        {
          "indexed": false,
          "internalType": "uint256[]",
          "name": "values",
          "type": "uint256[]"
        }
      ],
      "name": "TransferBatch",
      "type": "event"
    },
    {
      "anonymous": false,
      "inputs": [
        {
          "indexed": true,
          "internalType": "address",
          "name": "operator",
          "type": "address"
        },
        {
          "indexed": true,
          "internalType": "address",
          "name": "from",
          "type": "address"
        },
        {
          "indexed": true,
          "internalType": "address",
          "name": "to",
          "type": "address"
        },
        {
          "indexed": false,
          "internalType": "uint256",
          "name": "id",
          "type": "uint256"
        },
        {
          "indexed": false,
          "internalType": "uint256",
          "name": "value",
          "type": "uint256"
        }
      ],
      "name": "TransferSingle",
      "type": "event"
    },
    {
      "anonymous": false,
      "inputs": [
        {
          "indexed": false,
          "internalType": "string",
          "name": "value",
          "type": "string"
        },
        {
          "indexed": true,
          "internalType": "uint256",
          "name": "id",
          "type": "uint256"
        }
      ],
      "name": "URI",
      "type": "event"
    },
    {
      "inputs": [
        {
          "internalType": "uint256",
          "name": "tokenId",
          "type": "uint256"
        },
        {
          "internalType": "address[]",
          "name": "users",
          "type": "address[]"
        }
      ],
      "name": "addToWhitelist",
      "outputs": [],
      "stateMutability": "nonpayable",
      "type": "function"
    },
    {
      "inputs": [
        {
          "internalType": "address",
          "name": "account",
          "type": "address"
        },
        {
          "internalType": "uint256",
          "name": "id",
          "type": "uint256"
        }
      ],
      "name": "balanceOf",
      "outputs": [
        {
          "internalType": "uint256",
          "name": "",
          "type": "uint256"
        }
      ],
      "stateMutability": "view",
      "type": "function"
    },
    {
      "inputs": [
        {
          "internalType": "address[]",
          "name": "accounts",
          "type": "address[]"
        },
        {
          "internalType": "uint256[]",
          "name": "ids",
          "type": "uint256[]"
        }
      ],
      "name": "balanceOfBatch",
      "outputs": [
        {
          "internalType": "uint256[]",
          "name": "",
          "type": "uint256[]"
        }
      ],
      "stateMutability": "view",
      "type": "function"
    },
    {
      "inputs": [
        {
          "internalType": "uint256",
          "name": "tokenId",
          "type": "uint256"
        },
        {
          "internalType": "uint256",
          "name": "amount",
          "type": "uint256"
        }
      ],
      "name": "buyRwa",
      "outputs": [],
      "stateMutability": "payable",
      "type": "function"
    },
    {
      "inputs": [
        {
          "internalType": "uint256",
          "name": "tokenId",
          "type": "uint256"
        }
      ],
      "name": "claimRevenue",
      "outputs": [],
      "stateMutability": "nonpayable",
      "type": "function"
    },
    {
      "inputs": [
        {
          "internalType": "uint256",
          "name": "",
          "type": "uint256"
        },
        {
          "internalType": "address",
          "name": "",
          "type": "address"
        }
      ],
      "name": "claimedRevenue",
      "outputs": [
        {
          "internalType": "uint256",
          "name": "",
          "type": "uint256"
        }
      ],
      "stateMutability": "view",
      "type": "function"
    },
    {
      "inputs": [
        {
          "internalType": "uint256",
          "name": "tokenId",
          "type": "uint256"
        }
      ],
      "name": "depositRevenue",
      "outputs": [],
      "stateMutability": "payable",
      "type": "function"
    },
    {
      "inputs": [
        {
          "internalType": "uint256",
          "name": "tokenId",
          "type": "uint256"
        },
        {
          "internalType": "address",
          "name": "user",
          "type": "address"
        }
      ],
      "name": "getClaimableRevenue",
      "outputs": [
        {
          "internalType": "uint256",
          "name": "",
          "type": "uint256"
        }
      ],
      "stateMutability": "view",
      "type": "function"
    },
    {
      "inputs": [
        {
          "internalType": "uint256",
          "name": "tokenId",
          "type": "uint256"
        }
      ],
      "name": "getRWA",
      "outputs": [
        {
          "components": [
            {
              "internalType": "string",
              "name": "rwaType",
              "type": "string"
            },
            {
              "internalType": "uint256",
              "name": "percent",
              "type": "uint256"
            },
            {
              "internalType": "string",
              "name": "metadataURI",
              "type": "string"
            },
            {
              "internalType": "string",
              "name": "legalDocURI",
              "type": "string"
            },
            {
              "internalType": "uint256",
              "name": "lockupEndDate",
              "type": "uint256"
            },
            {
              "internalType": "bool",
              "name": "complianceRequired",
              "type": "bool"
            },
            {
              "internalType": "uint256",
              "name": "price",
              "type": "uint256"
            }
          ],
          "internalType": "struct RWA1155.RWAData",
          "name": "",
          "type": "tuple"
        }
      ],
      "stateMutability": "view",
      "type": "function"
    },
    {
      "inputs": [
        {
          "internalType": "address",
          "name": "account",
          "type": "address"
        },
        {
          "internalType": "address",
          "name": "operator",
          "type": "address"
        }
      ],
      "name": "isApprovedForAll",
      "outputs": [
        {
          "internalType": "bool",
          "name": "",
          "type": "bool"
        }
      ],
      "stateMutability": "view",
      "type": "function"
    },
    {
      "inputs": [
        {
          "internalType": "uint256",
          "name": "tokenId",
          "type": "uint256"
        },
        {
          "internalType": "address",
          "name": "user",
          "type": "address"
        }
      ],
      "name": "isWhitelisted",
      "outputs": [
        {
          "internalType": "bool",
          "name": "",
          "type": "bool"
        }
      ],
      "stateMutability": "view",
      "type": "function"
    },
    {
      "inputs": [],
      "name": "lastTokenId",
      "outputs": [
        {
          "internalType": "uint256",
          "name": "",
          "type": "uint256"
        }
      ],
      "stateMutability": "view",
      "type": "function"
    },
    {
      "inputs": [
        {
          "internalType": "address",
          "name": "to",
          "type": "address"
        },
        {
          "internalType": "uint256",
          "name": "amount",
          "type": "uint256"
        },
        {
          "internalType": "string",
          "name": "rwaType",
          "type": "string"
        },
        {
          "internalType": "uint256",
          "name": "percent",
          "type": "uint256"
        },
        {
          "internalType": "string",
          "name": "metadataURI",
          "type": "string"
        },
        {
          "internalType": "string",
          "name": "legalDocURI",
          "type": "string"
        },
        {
          "internalType": "uint256",
          "name": "lockupEndDate",
          "type": "uint256"
        },
        {
          "internalType": "bool",
          "name": "complianceRequired",
          "type": "bool"
        },
        {
          "internalType": "uint256",
          "name": "price",
          "type": "uint256"
        }
      ],
      "name": "mintRWA",
      "outputs": [
        {
          "internalType": "uint256",
          "name": "",
          "type": "uint256"
        }
      ],
      "stateMutability": "nonpayable",
      "type": "function"
    },
    {
      "inputs": [],
      "name": "owner",
      "outputs": [
        {
          "internalType": "address",
          "name": "",
          "type": "address"
        }
      ],
      "stateMutability": "view",
      "type": "function"
    },
    {
      "inputs": [
        {
          "internalType": "uint256",
          "name": "tokenId",
          "type": "uint256"
        },
        {
          "internalType": "address[]",
          "name": "users",
          "type": "address[]"
        }
      ],
      "name": "removeFromWhitelist",
      "outputs": [],
      "stateMutability": "nonpayable",
      "type": "function"
    },
    {
      "inputs": [],
      "name": "renounceOwnership",
      "outputs": [],
      "stateMutability": "nonpayable",
      "type": "function"
    },
    {
      "inputs": [
        {
          "internalType": "uint256",
          "name": "",
          "type": "uint256"
        }
      ],
      "name": "rwaMetadata",
      "outputs": [
        {
          "internalType": "string",
          "name": "rwaType",
          "type": "string"
        },
        {
          "internalType": "uint256",
          "name": "percent",
          "type": "uint256"
        },
        {
          "internalType": "string",
          "name": "metadataURI",
          "type": "string"
        },
        {
          "internalType": "string",
          "name": "legalDocURI",
          "type": "string"
        },
        {
          "internalType": "uint256",
          "name": "lockupEndDate",
          "type": "uint256"
        },
        {
          "internalType": "bool",
          "name": "complianceRequired",
          "type": "bool"
        },
        {
          "internalType": "uint256",
          "name": "price",
          "type": "uint256"
        }
      ],
      "stateMutability": "view",
      "type": "function"
    },
    {
      "inputs": [
        {
          "internalType": "address",
          "name": "from",
          "type": "address"
        },
        {
          "internalType": "address",
          "name": "to",
          "type": "address"
        },
        {
          "internalType": "uint256[]",
          "name": "ids",
          "type": "uint256[]"
        },
        {
          "internalType": "uint256[]",
          "name": "amounts",
          "type": "uint256[]"
        },
        {
          "internalType": "bytes",
          "name": "data",
          "type": "bytes"
        }
      ],
      "name": "safeBatchTransferFrom",
      "outputs": [],
      "stateMutability": "nonpayable",
      "type": "function"
    },
    {
      "inputs": [
        {
          "internalType": "address",
          "name": "from",
          "type": "address"
        },
        {
          "internalType": "address",
          "name": "to",
          "type": "address"
        },
        {
          "internalType": "uint256",
          "name": "id",
          "type": "uint256"
        },
        {
          "internalType": "uint256",
          "name": "amount",
          "type": "uint256"
        },
        {
          "internalType": "bytes",
          "name": "data",
          "type": "bytes"
        }
      ],
      "name": "safeTransferFrom",
      "outputs": [],
      "stateMutability": "nonpayable",
      "type": "function"
    },
    {
      "inputs": [
        {
          "internalType": "address",
          "name": "operator",
          "type": "address"
        },
        {
          "internalType": "bool",
          "name": "approved",
          "type": "bool"
        }
      ],
      "name": "setApprovalForAll",
      "outputs": [],
      "stateMutability": "nonpayable",
      "type": "function"
    },
    {
      "inputs": [
        {
          "internalType": "uint256",
          "name": "tokenId",
          "type": "uint256"
        },
        {
          "internalType": "string",
          "name": "newuri",
          "type": "string"
        }
      ],
      "name": "setURI",
      "outputs": [],
      "stateMutability": "nonpayable",
      "type": "function"
    },
    {
      "inputs": [
        {
          "internalType": "bytes4",
          "name": "interfaceId",
          "type": "bytes4"
        }
      ],
      "name": "supportsInterface",
      "outputs": [
        {
          "internalType": "bool",
          "name": "",
          "type": "bool"
        }
      ],
      "stateMutability": "view",
      "type": "function"
    },
    {
      "inputs": [
        {
          "internalType": "uint256",
          "name": "",
          "type": "uint256"
        }
      ],
      "name": "totalRevenueDeposited",
      "outputs": [
        {
          "internalType": "uint256",
          "name": "",
          "type": "uint256"
        }
      ],
      "stateMutability": "view",
      "type": "function"
    },
    {
      "inputs": [
        {
          "internalType": "uint256",
          "name": "",
          "type": "uint256"
        }
      ],
      "name": "totalSupply",
      "outputs": [
        {
          "internalType": "uint256",
          "name": "",
          "type": "uint256"
        }
      ],
      "stateMutability": "view",
      "type": "function"
    },
    {
      "inputs": [
        {
          "internalType": "address",
          "name": "newOwner",
          "type": "address"
        }
      ],
      "name": "transferOwnership",
      "outputs": [],
      "stateMutability": "nonpayable",
      "type": "function"
    },
    {
      "inputs": [
        {
          "internalType": "uint256",
          "name": "tokenId",
          "type": "uint256"
        }
      ],
      "name": "uri",
      "outputs": [
        {
          "internalType": "string",
          "name": "",
          "type": "string"
        }
      ],
      "stateMutability": "view",
      "type": "function"
    },
    {
      "inputs": [
        {
          "internalType": "uint256",
          "name": "",
          "type": "uint256"
        },
        {
          "internalType": "address",
          "name": "",
          "type": "address"
        }
      ],
      "name": "whitelist",
      "outputs": [
        {
          "internalType": "bool",
          "name": "",
          "type": "bool"
        }
      ],
      "stateMutability": "view",
      "type": "function"
    }
  ],
  "bytecode": "0x60806040523480156200001157600080fd5b506040518060200160405280600081525062000033816200005a60201b60201c565b5062000054620000486200006f60201b60201c565b6200007760201b60201c565b6200049e565b80600290816200006b9190620003b7565b5050565b600033905090565b6000600360009054906101000a900473ffffffffffffffffffffffffffffffffffffffff16905081600360006101000a81548173ffffffffffffffffffffffffffffffffffffffff021916908373ffffffffffffffffffffffffffffffffffffffff1602179055508173ffffffffffffffffffffffffffffffffffffffff168173ffffffffffffffffffffffffffffffffffffffff167f8be0079c531659141344cd1fd0a4f28419497f9722a3daafe3b4186f6b6457e060405160405180910390a35050565b600081519050919050565b7f4e487b7100000000000000000000000000000000000000000000000000000000600052604160045260246000fd5b7f4e487b7100000000000000000000000000000000000000000000000000000000600052602260045260246000fd5b60006002820490506001821680620001bf57607f821691505b602082108103620001d557620001d462000177565b5b50919050565b60008190508160005260206000209050919050565b60006020601f8301049050919050565b600082821b905092915050565b6000600883026200023f7fffffffffffffffffffffffffffffffffffffffffffffffffffffffffffffffff8262000200565b6200024b868362000200565b95508019841693508086168417925050509392505050565b6000819050919050565b6000819050919050565b600062000298620002926200028c8462000263565b6200026d565b62000263565b9050919050565b6000819050919050565b620002b48362000277565b620002cc620002c3826200029f565b8484546200020d565b825550505050565b600090565b620002e3620002d4565b620002f0818484620002a9565b505050565b5b8181101562000318576200030c600082620002d9565b600181019050620002f6565b5050565b601f82111562000367576200033181620001db565b6200033c84620001f0565b810160208510156200034c578190505b620003646200035b85620001f0565b830182620002f5565b50505b505050565b600082821c905092915050565b60006200038c600019846008026200036c565b1980831691505092915050565b6000620003a7838362000379565b9150826002028217905092915050565b620003c2826200013d565b67ffffffffffffffff811115620003de57620003dd62000148565b5b620003ea8254620001a6565b620003f78282856200031c565b600060209050601f8311600181146200042f57600084156200041a578287015190505b62000426858262000399565b86555062000496565b601f1984166200043f86620001db565b60005b82811015620004695784890151825560018201915060208501945060208101905062000442565b8683101562000489578489015162000485601f89168262000379565b8355505b6001600288020188555050505b505050505050565b614f1a80620004ae6000396000f3fe60806040526004361061019b5760003560e01c8063862440e2116100ec578063e985e9c51161008a578063f242432a11610064578063f242432a1461062f578063f2fde38b14610658578063f84ddf0b14610681578063fca7095c146106ac5761019b565b8063e985e9c5146105a0578063f221c20c146105dd578063f2295b1d146106065761019b565b8063bc1ca3e9116100c6578063bc1ca3e9146104ee578063bd85b0391461050a578063dc5581e214610547578063ddca659b146105635761019b565b8063862440e2146104715780638da5cb5b1461049a578063a22cb465146104c55761019b565b80634c80477211610159578063692cbce711610133578063692cbce71461039d5780636f312e64146103da578063715018a61461041d5780637d22c35c146104345761019b565b80634c804772146102e65780634e1273f41461032357806361d1c3d3146103605761019b565b8062fdd58e146101a057806301ffc9a7146101dd5780630e89341c1461021a5780631cb536ed146102575780632eb2c2d6146102805780634b25bfce146102a9575b600080fd5b3480156101ac57600080fd5b506101c760048036038101906101c29190612d22565b6106e9565b6040516101d49190612d71565b60405180910390f35b3480156101e957600080fd5b5061020460048036038101906101ff9190612de4565b6107b1565b6040516102119190612e2c565b60405180910390f35b34801561022657600080fd5b50610241600480360381019061023c9190612e47565b610893565b60405161024e9190612f04565b60405180910390f35b34801561026357600080fd5b5061027e60048036038101906102799190612e47565b61099c565b005b34801561028c57600080fd5b506102a760048036038101906102a29190613123565b610b05565b005b3480156102b557600080fd5b506102d060048036038101906102cb91906131f2565b610ba6565b6040516102dd9190612e2c565b60405180910390f35b3480156102f257600080fd5b5061030d60048036038101906103089190612e47565b610bd5565b60405161031a9190612d71565b60405180910390f35b34801561032f57600080fd5b5061034a600480360381019061034591906132f5565b610bed565b604051610357919061342b565b60405180910390f35b34801561036c57600080fd5b50610387600480360381019061038291906131f2565b610d06565b6040516103949190612d71565b60405180910390f35b3480156103a957600080fd5b506103c460048036038101906103bf919061351a565b610d2b565b6040516103d19190612d71565b60405180910390f35b3480156103e657600080fd5b5061040160048036038101906103fc9190612e47565b610e6e565b6040516104149796959493929190613638565b60405180910390f35b34801561042957600080fd5b50610432611055565b005b34801561044057600080fd5b5061045b600480360381019061045691906131f2565b611069565b6040516104689190612e2c565b60405180910390f35b34801561047d57600080fd5b50610498600480360381019061049391906136bc565b6110d1565b005b3480156104a657600080fd5b506104af611162565b6040516104bc9190613727565b60405180910390f35b3480156104d157600080fd5b506104ec60048036038101906104e79190613742565b61118c565b005b61050860048036038101906105039190612e47565b6111a2565b005b34801561051657600080fd5b50610531600480360381019061052c9190612e47565b61127b565b60405161053e9190612d71565b60405180910390f35b610561600480360381019061055c9190613782565b611293565b005b34801561056f57600080fd5b5061058a60048036038101906105859190612e47565b611424565b60405161059791906138c5565b60405180910390f35b3480156105ac57600080fd5b506105c760048036038101906105c291906138e7565b6116a1565b6040516105d49190612e2c565b60405180910390f35b3480156105e957600080fd5b5061060460048036038101906105ff9190613982565b611735565b005b34801561061257600080fd5b5061062d60048036038101906106289190613982565b6117f4565b005b34801561063b57600080fd5b50610656600480360381019061065191906139e2565b6118b3565b005b34801561066457600080fd5b5061067f600480360381019061067a9190613a79565b611954565b005b34801561068d57600080fd5b506106966119d7565b6040516106a39190612d71565b60405180910390f35b3480156106b857600080fd5b506106d360048036038101906106ce91906131f2565b6119e8565b6040516106e09190612d71565b60405180910390f35b60008073ffffffffffffffffffffffffffffffffffffffff168373ffffffffffffffffffffffffffffffffffffffff1603610759576040517f08c379a000000000000000000000000000000000000000000000000000000000815260040161075090613b18565b60405180910390fd5b60008083815260200190815260200160002060008473ffffffffffffffffffffffffffffffffffffffff1673ffffffffffffffffffffffffffffffffffffffff16815260200190815260200160002054905092915050565b60007fd9b67a26000000000000000000000000000000000000000000000000000000007bffffffffffffffffffffffffffffffffffffffffffffffffffffffff1916827bffffffffffffffffffffffffffffffffffffffffffffffffffffffff1916148061087c57507f0e89341c000000000000000000000000000000000000000000000000000000007bffffffffffffffffffffffffffffffffffffffffffffffffffffffff1916827bffffffffffffffffffffffffffffffffffffffffffffffffffffffff1916145b8061088c575061088b82611aeb565b5b9050919050565b606060006108a16004611b55565b1180156108b757506108b36004611b55565b8211155b6108f6576040517f08c379a00000000000000000000000000000000000000000000000000000000081526004016108ed90613baa565b60405180910390fd5b60056000838152602001908152602001600020600201805461091790613bf9565b80601f016020809104026020016040519081016040528092919081815260200182805461094390613bf9565b80156109905780601f1061096557610100808354040283529160200191610990565b820191906000526020600020905b81548152906001019060200180831161097357829003601f168201915b50505050509050919050565b60006109a882336119e8565b9050600081116109ed576040517f08c379a00000000000000000000000000000000000000000000000000000000081526004016109e490613c76565b60405180910390fd5b806009600084815260200190815260200160002060003373ffffffffffffffffffffffffffffffffffffffff1673ffffffffffffffffffffffffffffffffffffffff1681526020019081526020016000206000828254610a4d9190613cc5565b9250508190555060003373ffffffffffffffffffffffffffffffffffffffff1682604051610a7a90613d2a565b60006040518083038185875af1925050503d8060008114610ab7576040519150601f19603f3d011682016040523d82523d6000602084013e610abc565b606091505b5050905080610b00576040517f08c379a0000000000000000000000000000000000000000000000000000000008152600401610af790613d8b565b60405180910390fd5b505050565b610b0d611b63565b73ffffffffffffffffffffffffffffffffffffffff168573ffffffffffffffffffffffffffffffffffffffff161480610b535750610b5285610b4d611b63565b6116a1565b5b610b92576040517f08c379a0000000000000000000000000000000000000000000000000000000008152600401610b8990613e1d565b60405180910390fd5b610b9f8585858585611b6b565b5050505050565b60076020528160005260406000206020528060005260406000206000915091509054906101000a900460ff1681565b60086020528060005260406000206000915090505481565b60608151835114610c33576040517f08c379a0000000000000000000000000000000000000000000000000000000008152600401610c2a90613eaf565b60405180910390fd5b6000835167ffffffffffffffff811115610c5057610c4f612f2b565b5b604051908082528060200260200182016040528015610c7e5781602001602082028036833780820191505090505b50905060005b8451811015610cfb57610ccb858281518110610ca357610ca2613ecf565b5b6020026020010151858381518110610cbe57610cbd613ecf565b5b60200260200101516106e9565b828281518110610cde57610cdd613ecf565b5b60200260200101818152505080610cf490613efe565b9050610c84565b508091505092915050565b6009602052816000526040600020602052806000526040600020600091509150505481565b6000610d35611e8c565b610d3f6004611f0a565b6000610d4b6004611b55565b90506040518060e001604052808a8152602001898152602001888152602001878152602001868152602001851515815260200184815250600560008381526020019081526020016000206000820151816000019081610daa91906140f2565b50602082015181600101556040820151816002019081610dca91906140f2565b506060820151816003019081610de091906140f2565b506080820151816004015560a08201518160050160006101000a81548160ff02191690831515021790555060c08201518160060155905050610e338b828c60405180602001604052806000815250611f20565b89600660008381526020019081526020016000206000828254610e569190613cc5565b92505081905550809150509998505050505050505050565b6005602052806000526040600020600091509050806000018054610e9190613bf9565b80601f0160208091040260200160405190810160405280929190818152602001828054610ebd90613bf9565b8015610f0a5780601f10610edf57610100808354040283529160200191610f0a565b820191906000526020600020905b815481529060010190602001808311610eed57829003601f168201915b505050505090806001015490806002018054610f2590613bf9565b80601f0160208091040260200160405190810160405280929190818152602001828054610f5190613bf9565b8015610f9e5780601f10610f7357610100808354040283529160200191610f9e565b820191906000526020600020905b815481529060010190602001808311610f8157829003601f168201915b505050505090806003018054610fb390613bf9565b80601f0160208091040260200160405190810160405280929190818152602001828054610fdf90613bf9565b801561102c5780601f106110015761010080835404028352916020019161102c565b820191906000526020600020905b81548152906001019060200180831161100f57829003601f168201915b5050505050908060040154908060050160009054906101000a900460ff16908060060154905087565b61105d611e8c565b61106760006120d0565b565b60006007600084815260200190815260200160002060008373ffffffffffffffffffffffffffffffffffffffff1673ffffffffffffffffffffffffffffffffffffffff16815260200190815260200160002060009054906101000a900460ff16905092915050565b6110d9611e8c565b60006110e56004611b55565b1180156110fb57506110f76004611b55565b8211155b61113a576040517f08c379a000000000000000000000000000000000000000000000000000000000815260040161113190614236565b60405180910390fd5b8060056000848152602001908152602001600020600201908161115d91906140f2565b505050565b6000600360009054906101000a900473ffffffffffffffffffffffffffffffffffffffff16905090565b61119e611197611b63565b8383612196565b5050565b6111aa611e8c565b60006111b66004611b55565b1180156111cc57506111c86004611b55565b8111155b61120b576040517f08c379a0000000000000000000000000000000000000000000000000000000008152600401611202906142c8565b60405180910390fd5b6000341161124e576040517f08c379a00000000000000000000000000000000000000000000000000000000081526004016112459061435a565b60405180910390fd5b346008600083815260200190815260200160002060008282546112719190613cc5565b9250508190555050565b60066020528060005260406000206000915090505481565b600060056000848152602001908152602001600020905060008160060154116112f1576040517f08c379a00000000000000000000000000000000000000000000000000000000081526004016112e8906143ec565b60405180910390fd5b6000828260060154611303919061440c565b9050803414611347576040517f08c379a000000000000000000000000000000000000000000000000000000000815260040161133e906144c0565b60405180910390fd5b61136a611352611162565b33868660405180602001604052806000815250612302565b6000611374611162565b73ffffffffffffffffffffffffffffffffffffffff163460405161139790613d2a565b60006040518083038185875af1925050503d80600081146113d4576040519150601f19603f3d011682016040523d82523d6000602084013e6113d9565b606091505b505090508061141d576040517f08c379a00000000000000000000000000000000000000000000000000000000081526004016114149061452c565b60405180910390fd5b5050505050565b61142c612c3b565b60006114386004611b55565b11801561144e575061144a6004611b55565b8211155b61148d576040517f08c379a0000000000000000000000000000000000000000000000000000000008152600401611484906145be565b60405180910390fd5b600560008381526020019081526020016000206040518060e00160405290816000820180546114bb90613bf9565b80601f01602080910402602001604051908101604052809291908181526020018280546114e790613bf9565b80156115345780601f1061150957610100808354040283529160200191611534565b820191906000526020600020905b81548152906001019060200180831161151757829003601f168201915b505050505081526020016001820154815260200160028201805461155790613bf9565b80601f016020809104026020016040519081016040528092919081815260200182805461158390613bf9565b80156115d05780601f106115a5576101008083540402835291602001916115d0565b820191906000526020600020905b8154815290600101906020018083116115b357829003601f168201915b505050505081526020016003820180546115e990613bf9565b80601f016020809104026020016040519081016040528092919081815260200182805461161590613bf9565b80156116625780601f1061163757610100808354040283529160200191611662565b820191906000526020600020905b81548152906001019060200180831161164557829003601f168201915b50505050508152602001600482015481526020016005820160009054906101000a900460ff161515151581526020016006820154815250509050919050565b6000600160008473ffffffffffffffffffffffffffffffffffffffff1673ffffffffffffffffffffffffffffffffffffffff16815260200190815260200160002060008373ffffffffffffffffffffffffffffffffffffffff1673ffffffffffffffffffffffffffffffffffffffff16815260200190815260200160002060009054906101000a900460ff16905092915050565b61173d611e8c565b60005b828290508110156117ee57600060076000868152602001908152602001600020600085858581811061177557611774613ecf565b5b905060200201602081019061178a9190613a79565b73ffffffffffffffffffffffffffffffffffffffff1673ffffffffffffffffffffffffffffffffffffffff16815260200190815260200160002060006101000a81548160ff02191690831515021790555080806117e690613efe565b915050611740565b50505050565b6117fc611e8c565b60005b828290508110156118ad57600160076000868152602001908152602001600020600085858581811061183457611833613ecf565b5b90506020020160208101906118499190613a79565b73ffffffffffffffffffffffffffffffffffffffff1673ffffffffffffffffffffffffffffffffffffffff16815260200190815260200160002060006101000a81548160ff02191690831515021790555080806118a590613efe565b9150506117ff565b50505050565b6118bb611b63565b73ffffffffffffffffffffffffffffffffffffffff168573ffffffffffffffffffffffffffffffffffffffff1614806119015750611900856118fb611b63565b6116a1565b5b611940576040517f08c379a000000000000000000000000000000000000000000000000000000000815260040161193790613e1d565b60405180910390fd5b61194d8585858585612302565b5050505050565b61195c611e8c565b600073ffffffffffffffffffffffffffffffffffffffff168173ffffffffffffffffffffffffffffffffffffffff16036119cb576040517f08c379a00000000000000000000000000000000000000000000000000000000081526004016119c290614650565b60405180910390fd5b6119d4816120d0565b50565b60006119e36004611b55565b905090565b6000806119f583856106e9565b905060008103611a09576000915050611ae5565b60006006600086815260200190815260200160002054905060008103611a3457600092505050611ae5565b6000600860008781526020019081526020016000205490506000828483611a5b919061440c565b611a65919061469f565b905060006009600089815260200190815260200160002060008873ffffffffffffffffffffffffffffffffffffffff1673ffffffffffffffffffffffffffffffffffffffff168152602001908152602001600020549050808211611ad157600095505050505050611ae5565b8082611add91906146d0565b955050505050505b92915050565b60007f01ffc9a7000000000000000000000000000000000000000000000000000000007bffffffffffffffffffffffffffffffffffffffffffffffffffffffff1916827bffffffffffffffffffffffffffffffffffffffffffffffffffffffff1916149050919050565b600081600001549050919050565b600033905090565b8151835114611baf576040517f08c379a0000000000000000000000000000000000000000000000000000000008152600401611ba690614776565b60405180910390fd5b600073ffffffffffffffffffffffffffffffffffffffff168473ffffffffffffffffffffffffffffffffffffffff1603611c1e576040517f08c379a0000000000000000000000000000000000000000000000000000000008152600401611c1590614808565b60405180910390fd5b6000611c28611b63565b9050611c3881878787878761259d565b60005b8451811015611de9576000858281518110611c5957611c58613ecf565b5b602002602001015190506000858381518110611c7857611c77613ecf565b5b60200260200101519050600080600084815260200190815260200160002060008b73ffffffffffffffffffffffffffffffffffffffff1673ffffffffffffffffffffffffffffffffffffffff16815260200190815260200160002054905081811015611d19576040517f08c379a0000000000000000000000000000000000000000000000000000000008152600401611d109061489a565b60405180910390fd5b81810360008085815260200190815260200160002060008c73ffffffffffffffffffffffffffffffffffffffff1673ffffffffffffffffffffffffffffffffffffffff168152602001908152602001600020819055508160008085815260200190815260200160002060008b73ffffffffffffffffffffffffffffffffffffffff1673ffffffffffffffffffffffffffffffffffffffff1681526020019081526020016000206000828254611dce9190613cc5565b9250508190555050505080611de290613efe565b9050611c3b565b508473ffffffffffffffffffffffffffffffffffffffff168673ffffffffffffffffffffffffffffffffffffffff168273ffffffffffffffffffffffffffffffffffffffff167f4a39dc06d4c0dbc64b70af90fd698a233a518aa5d07e595d983b8c0526c8f7fb8787604051611e609291906148ba565b60405180910390a4611e768187878787876127e0565b611e848187878787876127e8565b505050505050565b611e94611b63565b73ffffffffffffffffffffffffffffffffffffffff16611eb2611162565b73ffffffffffffffffffffffffffffffffffffffff1614611f08576040517f08c379a0000000000000000000000000000000000000000000000000000000008152600401611eff9061493d565b60405180910390fd5b565b6001816000016000828254019250508190555050565b600073ffffffffffffffffffffffffffffffffffffffff168473ffffffffffffffffffffffffffffffffffffffff1603611f8f576040517f08c379a0000000000000000000000000000000000000000000000000000000008152600401611f86906149cf565b60405180910390fd5b6000611f99611b63565b90506000611fa6856129bf565b90506000611fb3856129bf565b9050611fc48360008985858961259d565b8460008088815260200190815260200160002060008973ffffffffffffffffffffffffffffffffffffffff1673ffffffffffffffffffffffffffffffffffffffff16815260200190815260200160002060008282546120239190613cc5565b925050819055508673ffffffffffffffffffffffffffffffffffffffff16600073ffffffffffffffffffffffffffffffffffffffff168473ffffffffffffffffffffffffffffffffffffffff167fc3d58168c5ae7397731d063d5bbf3d657854427343f4c083240f7aacaa2d0f6289896040516120a19291906149ef565b60405180910390a46120b8836000898585896127e0565b6120c783600089898989612a39565b50505050505050565b6000600360009054906101000a900473ffffffffffffffffffffffffffffffffffffffff16905081600360006101000a81548173ffffffffffffffffffffffffffffffffffffffff021916908373ffffffffffffffffffffffffffffffffffffffff1602179055508173ffffffffffffffffffffffffffffffffffffffff168173ffffffffffffffffffffffffffffffffffffffff167f8be0079c531659141344cd1fd0a4f28419497f9722a3daafe3b4186f6b6457e060405160405180910390a35050565b8173ffffffffffffffffffffffffffffffffffffffff168373ffffffffffffffffffffffffffffffffffffffff1603612204576040517f08c379a00000000000000000000000000000000000000000000000000000000081526004016121fb90614a8a565b60405180910390fd5b80600160008573ffffffffffffffffffffffffffffffffffffffff1673ffffffffffffffffffffffffffffffffffffffff16815260200190815260200160002060008473ffffffffffffffffffffffffffffffffffffffff1673ffffffffffffffffffffffffffffffffffffffff16815260200190815260200160002060006101000a81548160ff0219169083151502179055508173ffffffffffffffffffffffffffffffffffffffff168373ffffffffffffffffffffffffffffffffffffffff167f17307eab39ab6107e8899845ad3d59bd9653f200f220920489ca2b5937696c31836040516122f59190612e2c565b60405180910390a3505050565b600073ffffffffffffffffffffffffffffffffffffffff168473ffffffffffffffffffffffffffffffffffffffff1603612371576040517f08c379a000000000000000000000000000000000000000000000000000000000815260040161236890614808565b60405180910390fd5b600061237b611b63565b90506000612388856129bf565b90506000612395856129bf565b90506123a583898985858961259d565b600080600088815260200190815260200160002060008a73ffffffffffffffffffffffffffffffffffffffff1673ffffffffffffffffffffffffffffffffffffffff1681526020019081526020016000205490508581101561243c576040517f08c379a00000000000000000000000000000000000000000000000000000000081526004016124339061489a565b60405180910390fd5b85810360008089815260200190815260200160002060008b73ffffffffffffffffffffffffffffffffffffffff1673ffffffffffffffffffffffffffffffffffffffff168152602001908152602001600020819055508560008089815260200190815260200160002060008a73ffffffffffffffffffffffffffffffffffffffff1673ffffffffffffffffffffffffffffffffffffffff16815260200190815260200160002060008282546124f19190613cc5565b925050819055508773ffffffffffffffffffffffffffffffffffffffff168973ffffffffffffffffffffffffffffffffffffffff168573ffffffffffffffffffffffffffffffffffffffff167fc3d58168c5ae7397731d063d5bbf3d657854427343f4c083240f7aacaa2d0f628a8a60405161256e9291906149ef565b60405180910390a4612584848a8a86868a6127e0565b612592848a8a8a8a8a612a39565b505050505050505050565b60005b83518110156127c95760008482815181106125be576125bd613ecf565b5b6020026020010151905060006005600083815260200190815260200160002090506125e7611162565b73ffffffffffffffffffffffffffffffffffffffff168873ffffffffffffffffffffffffffffffffffffffff161415801561264f5750600073ffffffffffffffffffffffffffffffffffffffff168873ffffffffffffffffffffffffffffffffffffffff1614155b801561265e5750806004015442105b1561269e576040517f08c379a000000000000000000000000000000000000000000000000000000000815260040161269590614af6565b60405180910390fd5b8060050160009054906101000a900460ff1680156126ef57506126bf611162565b73ffffffffffffffffffffffffffffffffffffffff168873ffffffffffffffffffffffffffffffffffffffff1614155b80156127285750600073ffffffffffffffffffffffffffffffffffffffff168773ffffffffffffffffffffffffffffffffffffffff1614155b80156127615750600073ffffffffffffffffffffffffffffffffffffffff168873ffffffffffffffffffffffffffffffffffffffff1614155b801561277457506127728288611069565b155b156127b4576040517f08c379a00000000000000000000000000000000000000000000000000000000081526004016127ab90614b88565b60405180910390fd5b505080806127c190613efe565b9150506125a0565b506127d8868686868686612c10565b505050505050565b505050505050565b6128078473ffffffffffffffffffffffffffffffffffffffff16612c18565b156129b7578373ffffffffffffffffffffffffffffffffffffffff1663bc197c8187878686866040518663ffffffff1660e01b815260040161284d959493929190614bfd565b6020604051808303816000875af192505050801561288957506040513d601f19601f820116820180604052508101906128869190614c7a565b60015b61292e57612895614cb4565b806308c379a0036128f157506128a9614cd6565b806128b457506128f3565b806040517f08c379a00000000000000000000000000000000000000000000000000000000081526004016128e89190612f04565b60405180910390fd5b505b6040517f08c379a000000000000000000000000000000000000000000000000000000000815260040161292590614dd8565b60405180910390fd5b63bc197c8160e01b7bffffffffffffffffffffffffffffffffffffffffffffffffffffffff1916817bffffffffffffffffffffffffffffffffffffffffffffffffffffffff1916146129b5576040517f08c379a00000000000000000000000000000000000000000000000000000000081526004016129ac90614e6a565b60405180910390fd5b505b505050505050565b60606000600167ffffffffffffffff8111156129de576129dd612f2b565b5b604051908082528060200260200182016040528015612a0c5781602001602082028036833780820191505090505b5090508281600081518110612a2457612a23613ecf565b5b60200260200101818152505080915050919050565b612a588473ffffffffffffffffffffffffffffffffffffffff16612c18565b15612c08578373ffffffffffffffffffffffffffffffffffffffff1663f23a6e6187878686866040518663ffffffff1660e01b8152600401612a9e959493929190614e8a565b6020604051808303816000875af1925050508015612ada57506040513d601f19601f82011682018060405250810190612ad79190614c7a565b60015b612b7f57612ae6614cb4565b806308c379a003612b425750612afa614cd6565b80612b055750612b44565b806040517f08c379a0000000000000000000000000000000000000000000000000000000008152600401612b399190612f04565b60405180910390fd5b505b6040517f08c379a0000000000000000000000000000000000000000000000000000000008152600401612b7690614dd8565b60405180910390fd5b63f23a6e6160e01b7bffffffffffffffffffffffffffffffffffffffffffffffffffffffff1916817bffffffffffffffffffffffffffffffffffffffffffffffffffffffff191614612c06576040517f08c379a0000000000000000000000000000000000000000000000000000000008152600401612bfd90614e6a565b60405180910390fd5b505b505050505050565b505050505050565b6000808273ffffffffffffffffffffffffffffffffffffffff163b119050919050565b6040518060e001604052806060815260200160008152602001606081526020016060815260200160008152602001600015158152602001600081525090565b6000604051905090565b600080fd5b600080fd5b600073ffffffffffffffffffffffffffffffffffffffff82169050919050565b6000612cb982612c8e565b9050919050565b612cc981612cae565b8114612cd457600080fd5b50565b600081359050612ce681612cc0565b92915050565b6000819050919050565b612cff81612cec565b8114612d0a57600080fd5b50565b600081359050612d1c81612cf6565b92915050565b60008060408385031215612d3957612d38612c84565b5b6000612d4785828601612cd7565b9250506020612d5885828601612d0d565b9150509250929050565b612d6b81612cec565b82525050565b6000602082019050612d866000830184612d62565b92915050565b60007fffffffff0000000000000000000000000000000000000000000000000000000082169050919050565b612dc181612d8c565b8114612dcc57600080fd5b50565b600081359050612dde81612db8565b92915050565b600060208284031215612dfa57612df9612c84565b5b6000612e0884828501612dcf565b91505092915050565b60008115159050919050565b612e2681612e11565b82525050565b6000602082019050612e416000830184612e1d565b92915050565b600060208284031215612e5d57612e5c612c84565b5b6000612e6b84828501612d0d565b91505092915050565b600081519050919050565b600082825260208201905092915050565b60005b83811015612eae578082015181840152602081019050612e93565b60008484015250505050565b6000601f19601f8301169050919050565b6000612ed682612e74565b612ee08185612e7f565b9350612ef0818560208601612e90565b612ef981612eba565b840191505092915050565b60006020820190508181036000830152612f1e8184612ecb565b905092915050565b600080fd5b7f4e487b7100000000000000000000000000000000000000000000000000000000600052604160045260246000fd5b612f6382612eba565b810181811067ffffffffffffffff82111715612f8257612f81612f2b565b5b80604052505050565b6000612f95612c7a565b9050612fa18282612f5a565b919050565b600067ffffffffffffffff821115612fc157612fc0612f2b565b5b602082029050602081019050919050565b600080fd5b6000612fea612fe584612fa6565b612f8b565b9050808382526020820190506020840283018581111561300d5761300c612fd2565b5b835b8181101561303657806130228882612d0d565b84526020840193505060208101905061300f565b5050509392505050565b600082601f83011261305557613054612f26565b5b8135613065848260208601612fd7565b91505092915050565b600080fd5b600067ffffffffffffffff82111561308e5761308d612f2b565b5b61309782612eba565b9050602081019050919050565b82818337600083830152505050565b60006130c66130c184613073565b612f8b565b9050828152602081018484840111156130e2576130e161306e565b5b6130ed8482856130a4565b509392505050565b600082601f83011261310a57613109612f26565b5b813561311a8482602086016130b3565b91505092915050565b600080600080600060a0868803121561313f5761313e612c84565b5b600061314d88828901612cd7565b955050602061315e88828901612cd7565b945050604086013567ffffffffffffffff81111561317f5761317e612c89565b5b61318b88828901613040565b935050606086013567ffffffffffffffff8111156131ac576131ab612c89565b5b6131b888828901613040565b925050608086013567ffffffffffffffff8111156131d9576131d8612c89565b5b6131e5888289016130f5565b9150509295509295909350565b6000806040838503121561320957613208612c84565b5b600061321785828601612d0d565b925050602061322885828601612cd7565b9150509250929050565b600067ffffffffffffffff82111561324d5761324c612f2b565b5b602082029050602081019050919050565b600061327161326c84613232565b612f8b565b9050808382526020820190506020840283018581111561329457613293612fd2565b5b835b818110156132bd57806132a98882612cd7565b845260208401935050602081019050613296565b5050509392505050565b600082601f8301126132dc576132db612f26565b5b81356132ec84826020860161325e565b91505092915050565b6000806040838503121561330c5761330b612c84565b5b600083013567ffffffffffffffff81111561332a57613329612c89565b5b613336858286016132c7565b925050602083013567ffffffffffffffff81111561335757613356612c89565b5b61336385828601613040565b9150509250929050565b600081519050919050565b600082825260208201905092915050565b6000819050602082019050919050565b6133a281612cec565b82525050565b60006133b48383613399565b60208301905092915050565b6000602082019050919050565b60006133d88261336d565b6133e28185613378565b93506133ed83613389565b8060005b8381101561341e57815161340588826133a8565b9750613410836133c0565b9250506001810190506133f1565b5085935050505092915050565b6000602082019050818103600083015261344581846133cd565b905092915050565b600067ffffffffffffffff82111561346857613467612f2b565b5b61347182612eba565b9050602081019050919050565b600061349161348c8461344d565b612f8b565b9050828152602081018484840111156134ad576134ac61306e565b5b6134b88482856130a4565b509392505050565b600082601f8301126134d5576134d4612f26565b5b81356134e584826020860161347e565b91505092915050565b6134f781612e11565b811461350257600080fd5b50565b600081359050613514816134ee565b92915050565b60008060008060008060008060006101208a8c03121561353d5761353c612c84565b5b600061354b8c828d01612cd7565b995050602061355c8c828d01612d0d565b98505060408a013567ffffffffffffffff81111561357d5761357c612c89565b5b6135898c828d016134c0565b975050606061359a8c828d01612d0d565b96505060808a013567ffffffffffffffff8111156135bb576135ba612c89565b5b6135c78c828d016134c0565b95505060a08a013567ffffffffffffffff8111156135e8576135e7612c89565b5b6135f48c828d016134c0565b94505060c06136058c828d01612d0d565b93505060e06136168c828d01613505565b9250506101006136288c828d01612d0d565b9150509295985092959850929598565b600060e0820190508181036000830152613652818a612ecb565b90506136616020830189612d62565b81810360408301526136738188612ecb565b905081810360608301526136878187612ecb565b90506136966080830186612d62565b6136a360a0830185612e1d565b6136b060c0830184612d62565b98975050505050505050565b600080604083850312156136d3576136d2612c84565b5b60006136e185828601612d0d565b925050602083013567ffffffffffffffff81111561370257613701612c89565b5b61370e858286016134c0565b9150509250929050565b61372181612cae565b82525050565b600060208201905061373c6000830184613718565b92915050565b6000806040838503121561375957613758612c84565b5b600061376785828601612cd7565b925050602061377885828601613505565b9150509250929050565b6000806040838503121561379957613798612c84565b5b60006137a785828601612d0d565b92505060206137b885828601612d0d565b9150509250929050565b600082825260208201905092915050565b60006137de82612e74565b6137e881856137c2565b93506137f8818560208601612e90565b61380181612eba565b840191505092915050565b61381581612e11565b82525050565b600060e083016000830151848203600086015261383882826137d3565b915050602083015161384d6020860182613399565b506040830151848203604086015261386582826137d3565b9150506060830151848203606086015261387f82826137d3565b91505060808301516138946080860182613399565b5060a08301516138a760a086018261380c565b5060c08301516138ba60c0860182613399565b508091505092915050565b600060208201905081810360008301526138df818461381b565b905092915050565b600080604083850312156138fe576138fd612c84565b5b600061390c85828601612cd7565b925050602061391d85828601612cd7565b9150509250929050565b600080fd5b60008083601f84011261394257613941612f26565b5b8235905067ffffffffffffffff81111561395f5761395e613927565b5b60208301915083602082028301111561397b5761397a612fd2565b5b9250929050565b60008060006040848603121561399b5761399a612c84565b5b60006139a986828701612d0d565b935050602084013567ffffffffffffffff8111156139ca576139c9612c89565b5b6139d68682870161392c565b92509250509250925092565b600080600080600060a086880312156139fe576139fd612c84565b5b6000613a0c88828901612cd7565b9550506020613a1d88828901612cd7565b9450506040613a2e88828901612d0d565b9350506060613a3f88828901612d0d565b925050608086013567ffffffffffffffff811115613a6057613a5f612c89565b5b613a6c888289016130f5565b9150509295509295909350565b600060208284031215613a8f57613a8e612c84565b5b6000613a9d84828501612cd7565b91505092915050565b7f455243313135353a2061646472657373207a65726f206973206e6f742061207660008201527f616c6964206f776e657200000000000000000000000000000000000000000000602082015250565b6000613b02602a83612e7f565b9150613b0d82613aa6565b604082019050919050565b60006020820190508181036000830152613b3181613af5565b9050919050565b7f525741313135353a2055524920717565727920666f72206e6f6e65786973746560008201527f6e7420746f6b656e000000000000000000000000000000000000000000000000602082015250565b6000613b94602883612e7f565b9150613b9f82613b38565b604082019050919050565b60006020820190508181036000830152613bc381613b87565b9050919050565b7f4e487b7100000000000000000000000000000000000000000000000000000000600052602260045260246000fd5b60006002820490506001821680613c1157607f821691505b602082108103613c2457613c23613bca565b5b50919050565b7f525741313135353a204e6f20726576656e756520746f20636c61696d00000000600082015250565b6000613c60601c83612e7f565b9150613c6b82613c2a565b602082019050919050565b60006020820190508181036000830152613c8f81613c53565b9050919050565b7f4e487b7100000000000000000000000000000000000000000000000000000000600052601160045260246000fd5b6000613cd082612cec565b9150613cdb83612cec565b9250828201905080821115613cf357613cf2613c96565b5b92915050565b600081905092915050565b50565b6000613d14600083613cf9565b9150613d1f82613d04565b600082019050919050565b6000613d3582613d07565b9150819050919050565b7f525741313135353a205472616e73666572206661696c65640000000000000000600082015250565b6000613d75601883612e7f565b9150613d8082613d3f565b602082019050919050565b60006020820190508181036000830152613da481613d68565b9050919050565b7f455243313135353a2063616c6c6572206973206e6f7420746f6b656e206f776e60008201527f6572206f7220617070726f766564000000000000000000000000000000000000602082015250565b6000613e07602e83612e7f565b9150613e1282613dab565b604082019050919050565b60006020820190508181036000830152613e3681613dfa565b9050919050565b7f455243313135353a206163636f756e747320616e6420696473206c656e67746860008201527f206d69736d617463680000000000000000000000000000000000000000000000602082015250565b6000613e99602983612e7f565b9150613ea482613e3d565b604082019050919050565b60006020820190508181036000830152613ec881613e8c565b9050919050565b7f4e487b7100000000000000000000000000000000000000000000000000000000600052603260045260246000fd5b6000613f0982612cec565b91507fffffffffffffffffffffffffffffffffffffffffffffffffffffffffffffffff8203613f3b57613f3a613c96565b5b600182019050919050565b60008190508160005260206000209050919050565b60006020601f8301049050919050565b600082821b905092915050565b600060088302613fa87fffffffffffffffffffffffffffffffffffffffffffffffffffffffffffffffff82613f6b565b613fb28683613f6b565b95508019841693508086168417925050509392505050565b6000819050919050565b6000613fef613fea613fe584612cec565b613fca565b612cec565b9050919050565b6000819050919050565b61400983613fd4565b61401d61401582613ff6565b848454613f78565b825550505050565b600090565b614032614025565b61403d818484614000565b505050565b5b818110156140615761405660008261402a565b600181019050614043565b5050565b601f8211156140a65761407781613f46565b61408084613f5b565b8101602085101561408f578190505b6140a361409b85613f5b565b830182614042565b50505b505050565b600082821c905092915050565b60006140c9600019846008026140ab565b1980831691505092915050565b60006140e283836140b8565b9150826002028217905092915050565b6140fb82612e74565b67ffffffffffffffff81111561411457614113612f2b565b5b61411e8254613bf9565b614129828285614065565b600060209050601f83116001811461415c576000841561414a578287015190505b61415485826140d6565b8655506141bc565b601f19841661416a86613f46565b60005b828110156141925784890151825560018201915060208501945060208101905061416d565b868310156141af57848901516141ab601f8916826140b8565b8355505b6001600288020188555050505b505050505050565b7f525741313135353a205552492073657420666f72206e6f6e6578697374656e7460008201527f20746f6b656e0000000000000000000000000000000000000000000000000000602082015250565b6000614220602683612e7f565b915061422b826141c4565b604082019050919050565b6000602082019050818103600083015261424f81614213565b9050919050565b7f525741313135353a204465706f73697420666f72206e6f6e6578697374656e7460008201527f20746f6b656e0000000000000000000000000000000000000000000000000000602082015250565b60006142b2602683612e7f565b91506142bd82614256565b604082019050919050565b600060208201905081810360008301526142e1816142a5565b9050919050565b7f525741313135353a204465706f736974206d757374206265206772656174657260008201527f207468616e207a65726f00000000000000000000000000000000000000000000602082015250565b6000614344602a83612e7f565b915061434f826142e8565b604082019050919050565b6000602082019050818103600083015261437381614337565b9050919050565b7f525741313135353a205468697320746f6b656e206973206e6f7420666f72207360008201527f616c650000000000000000000000000000000000000000000000000000000000602082015250565b60006143d6602383612e7f565b91506143e18261437a565b604082019050919050565b60006020820190508181036000830152614405816143c9565b9050919050565b600061441782612cec565b915061442283612cec565b925082820261443081612cec565b9150828204841483151761444757614446613c96565b5b5092915050565b7f525741313135353a20496e636f727265637420616d6f756e74206f662043485a60008201527f2073656e74000000000000000000000000000000000000000000000000000000602082015250565b60006144aa602583612e7f565b91506144b58261444e565b604082019050919050565b600060208201905081810360008301526144d98161449d565b9050919050565b7f525741313135353a205061796d656e74207472616e73666572206661696c6564600082015250565b6000614516602083612e7f565b9150614521826144e0565b602082019050919050565b6000602082019050818103600083015261454581614509565b9050919050565b7f525741313135353a2052574120717565727920666f72206e6f6e65786973746560008201527f6e7420746f6b656e000000000000000000000000000000000000000000000000602082015250565b60006145a8602883612e7f565b91506145b38261454c565b604082019050919050565b600060208201905081810360008301526145d78161459b565b9050919050565b7f4f776e61626c653a206e6577206f776e657220697320746865207a65726f206160008201527f6464726573730000000000000000000000000000000000000000000000000000602082015250565b600061463a602683612e7f565b9150614645826145de565b604082019050919050565b600060208201905081810360008301526146698161462d565b9050919050565b7f4e487b7100000000000000000000000000000000000000000000000000000000600052601260045260246000fd5b60006146aa82612cec565b91506146b583612cec565b9250826146c5576146c4614670565b5b828204905092915050565b60006146db82612cec565b91506146e683612cec565b92508282039050818111156146fe576146fd613c96565b5b92915050565b7f455243313135353a2069647320616e6420616d6f756e7473206c656e6774682060008201527f6d69736d61746368000000000000000000000000000000000000000000000000602082015250565b6000614760602883612e7f565b915061476b82614704565b604082019050919050565b6000602082019050818103600083015261478f81614753565b9050919050565b7f455243313135353a207472616e7366657220746f20746865207a65726f20616460008201527f6472657373000000000000000000000000000000000000000000000000000000602082015250565b60006147f2602583612e7f565b91506147fd82614796565b604082019050919050565b60006020820190508181036000830152614821816147e5565b9050919050565b7f455243313135353a20696e73756666696369656e742062616c616e636520666f60008201527f72207472616e7366657200000000000000000000000000000000000000000000602082015250565b6000614884602a83612e7f565b915061488f82614828565b604082019050919050565b600060208201905081810360008301526148b381614877565b9050919050565b600060408201905081810360008301526148d481856133cd565b905081810360208301526148e881846133cd565b90509392505050565b7f4f776e61626c653a2063616c6c6572206973206e6f7420746865206f776e6572600082015250565b6000614927602083612e7f565b9150614932826148f1565b602082019050919050565b600060208201905081810360008301526149568161491a565b9050919050565b7f455243313135353a206d696e7420746f20746865207a65726f2061646472657360008201527f7300000000000000000000000000000000000000000000000000000000000000602082015250565b60006149b9602183612e7f565b91506149c48261495d565b604082019050919050565b600060208201905081810360008301526149e8816149ac565b9050919050565b6000604082019050614a046000830185612d62565b614a116020830184612d62565b9392505050565b7f455243313135353a2073657474696e6720617070726f76616c2073746174757360008201527f20666f722073656c660000000000000000000000000000000000000000000000602082015250565b6000614a74602983612e7f565b9150614a7f82614a18565b604082019050919050565b60006020820190508181036000830152614aa381614a67565b9050919050565b7f525741313135353a20546f6b656e206973206c6f636b65640000000000000000600082015250565b6000614ae0601883612e7f565b9150614aeb82614aaa565b602082019050919050565b60006020820190508181036000830152614b0f81614ad3565b9050919050565b7f525741313135353a205265636569766572206e6f742077686974656c6973746560008201527f6420666f72207468697320746f6b656e00000000000000000000000000000000602082015250565b6000614b72603083612e7f565b9150614b7d82614b16565b604082019050919050565b60006020820190508181036000830152614ba181614b65565b9050919050565b600081519050919050565b600082825260208201905092915050565b6000614bcf82614ba8565b614bd98185614bb3565b9350614be9818560208601612e90565b614bf281612eba565b840191505092915050565b600060a082019050614c126000830188613718565b614c1f6020830187613718565b8181036040830152614c3181866133cd565b90508181036060830152614c4581856133cd565b90508181036080830152614c598184614bc4565b90509695505050505050565b600081519050614c7481612db8565b92915050565b600060208284031215614c9057614c8f612c84565b5b6000614c9e84828501614c65565b91505092915050565b60008160e01c9050919050565b600060033d1115614cd35760046000803e614cd0600051614ca7565b90505b90565b600060443d10614d6357614ce8612c7a565b60043d036004823e80513d602482011167ffffffffffffffff82111715614d10575050614d63565b808201805167ffffffffffffffff811115614d2e5750505050614d63565b80602083010160043d038501811115614d4b575050505050614d63565b614d5a82602001850186612f5a565b82955050505050505b90565b7f455243313135353a207472616e7366657220746f206e6f6e2d4552433131353560008201527f526563656976657220696d706c656d656e746572000000000000000000000000602082015250565b6000614dc2603483612e7f565b9150614dcd82614d66565b604082019050919050565b60006020820190508181036000830152614df181614db5565b9050919050565b7f455243313135353a204552433131353552656365697665722072656a6563746560008201527f6420746f6b656e73000000000000000000000000000000000000000000000000602082015250565b6000614e54602883612e7f565b9150614e5f82614df8565b604082019050919050565b60006020820190508181036000830152614e8381614e47565b9050919050565b600060a082019050614e9f6000830188613718565b614eac6020830187613718565b614eb96040830186612d62565b614ec66060830185612d62565b8181036080830152614ed88184614bc4565b9050969550505050505056fea264697066735822122018c2c523c692699b62f7db59cfaa40f068d7183db1cf5e1779960a0aeda98d9964736f6c63430008110033",
  "linkReferences": {},
  "deployedLinkReferences": {}
}